{
  "_format": "hh-sol-artifact-1",
  "contractName": "WeFund",
  "sourceName": "contracts/WeFund.sol",
  "abi": [
    {
      "anonymous": false,
      "inputs": [
        {
          "indexed": false,
          "internalType": "uint256",
          "name": "campaignId",
          "type": "uint256"
        },
        {
          "indexed": false,
          "internalType": "address",
          "name": "owner",
          "type": "address"
        },
        {
          "indexed": false,
          "internalType": "string",
          "name": "title",
          "type": "string"
        },
        {
          "indexed": false,
          "internalType": "uint256",
          "name": "goalAmount",
          "type": "uint256"
        }
      ],
      "name": "CampaignCreated",
      "type": "event"
    },
    {
      "anonymous": false,
      "inputs": [
        {
          "indexed": false,
          "internalType": "uint256",
          "name": "campaignId",
          "type": "uint256"
        },
        {
          "indexed": false,
          "internalType": "address",
          "name": "donor",
          "type": "address"
        },
        {
          "indexed": false,
          "internalType": "uint256",
          "name": "amount",
          "type": "uint256"
        }
      ],
      "name": "DonationReceived",
      "type": "event"
    },
    {
      "inputs": [],
      "name": "campaignCount",
      "outputs": [
        {
          "internalType": "uint256",
          "name": "",
          "type": "uint256"
        }
      ],
      "stateMutability": "view",
      "type": "function"
    },
    {
      "inputs": [
        {
          "internalType": "uint256",
          "name": "",
          "type": "uint256"
        }
      ],
      "name": "campaigns",
      "outputs": [
        {
          "internalType": "address",
          "name": "owner",
          "type": "address"
        },
        {
          "internalType": "string",
          "name": "title",
          "type": "string"
        },
        {
          "internalType": "string",
          "name": "description",
          "type": "string"
        },
        {
          "internalType": "uint256",
          "name": "goalAmount",
          "type": "uint256"
        },
        {
          "internalType": "uint256",
          "name": "raisedAmount",
          "type": "uint256"
        },
        {
          "internalType": "bool",
          "name": "completed",
          "type": "bool"
        }
      ],
      "stateMutability": "view",
      "type": "function"
    },
    {
      "inputs": [
        {
          "internalType": "string",
          "name": "_title",
          "type": "string"
        },
        {
          "internalType": "string",
          "name": "_description",
          "type": "string"
        },
        {
          "internalType": "uint256",
          "name": "_goalAmount",
          "type": "uint256"
        }
      ],
      "name": "createCampaign",
      "outputs": [],
      "stateMutability": "nonpayable",
      "type": "function"
    },
    {
      "inputs": [
        {
          "internalType": "uint256",
          "name": "_campaignId",
          "type": "uint256"
        }
      ],
      "name": "donate",
      "outputs": [],
      "stateMutability": "payable",
      "type": "function"
    },
    {
      "inputs": [
        {
          "internalType": "uint256",
          "name": "_campaignId",
          "type": "uint256"
        }
      ],
      "name": "getCampaign",
      "outputs": [
        {
          "internalType": "address",
          "name": "",
          "type": "address"
        },
        {
          "internalType": "string",
          "name": "",
          "type": "string"
        },
        {
          "internalType": "string",
          "name": "",
          "type": "string"
        },
        {
          "internalType": "uint256",
          "name": "",
          "type": "uint256"
        },
        {
          "internalType": "uint256",
          "name": "",
          "type": "uint256"
        },
        {
          "internalType": "bool",
          "name": "",
          "type": "bool"
        }
      ],
      "stateMutability": "view",
      "type": "function"
    },
    {
      "inputs": [
        {
          "internalType": "uint256",
          "name": "_campaignId",
          "type": "uint256"
        }
      ],
      "name": "withdrawFunds",
      "outputs": [],
      "stateMutability": "nonpayable",
      "type": "function"
    }
  ],
  "bytecode": "0x6080604052348015600f57600080fd5b506114a98061001f6000396000f3fe6080604052600436106100555760003560e01c8063141961bc1461005a578063155dd5ee1461009c5780635598f8cc146100c55780637274e30d14610107578063f14faf6f14610132578063ffa56a571461014e575b600080fd5b34801561006657600080fd5b50610081600480360381019061007c91906109fb565b610177565b60405161009396959493929190610b23565b60405180910390f35b3480156100a857600080fd5b506100c360048036038101906100be91906109fb565b6102f0565b005b3480156100d157600080fd5b506100ec60048036038101906100e791906109fb565b6104b7565b6040516100fe96959493929190610b23565b60405180910390f35b34801561011357600080fd5b5061011c6106be565b6040516101299190610b92565b60405180910390f35b61014c600480360381019061014791906109fb565b6106c4565b005b34801561015a57600080fd5b5061017560048036038101906101709190610ce2565b61080d565b005b60006020528060005260406000206000915090508060000160009054906101000a900473ffffffffffffffffffffffffffffffffffffffff16908060010180546101c090610d9c565b80601f01602080910402602001604051908101604052809291908181526020018280546101ec90610d9c565b80156102395780601f1061020e57610100808354040283529160200191610239565b820191906000526020600020905b81548152906001019060200180831161021c57829003601f168201915b50505050509080600201805461024e90610d9c565b80601f016020809104026020016040519081016040528092919081815260200182805461027a90610d9c565b80156102c75780601f1061029c576101008083540402835291602001916102c7565b820191906000526020600020905b8154815290600101906020018083116102aa57829003601f168201915b5050505050908060030154908060040154908060050160009054906101000a900460ff16905086565b6001548110610334576040517f08c379a000000000000000000000000000000000000000000000000000000000815260040161032b90610e19565b60405180910390fd5b600080600083815260200190815260200160002090508060000160009054906101000a900473ffffffffffffffffffffffffffffffffffffffff1673ffffffffffffffffffffffffffffffffffffffff163373ffffffffffffffffffffffffffffffffffffffff16146103dc576040517f08c379a00000000000000000000000000000000000000000000000000000000081526004016103d390610eab565b60405180910390fd5b806003015481600401541015610427576040517f08c379a000000000000000000000000000000000000000000000000000000000815260040161041e90610f17565b60405180910390fd5b60018160050160006101000a81548160ff0219169083151502179055508060000160009054906101000a900473ffffffffffffffffffffffffffffffffffffffff1673ffffffffffffffffffffffffffffffffffffffff166108fc82600401549081150290604051600060405180830381858888f193505050501580156104b2573d6000803e3d6000fd5b505050565b60006060806000806000806000808981526020019081526020016000206040518060c00160405290816000820160009054906101000a900473ffffffffffffffffffffffffffffffffffffffff1673ffffffffffffffffffffffffffffffffffffffff1673ffffffffffffffffffffffffffffffffffffffff16815260200160018201805461054590610d9c565b80601f016020809104026020016040519081016040528092919081815260200182805461057190610d9c565b80156105be5780601f10610593576101008083540402835291602001916105be565b820191906000526020600020905b8154815290600101906020018083116105a157829003601f168201915b505050505081526020016002820180546105d790610d9c565b80601f016020809104026020016040519081016040528092919081815260200182805461060390610d9c565b80156106505780601f1061062557610100808354040283529160200191610650565b820191906000526020600020905b81548152906001019060200180831161063357829003601f168201915b5050505050815260200160038201548152602001600482015481526020016005820160009054906101000a900460ff1615151515815250509050806000015181602001518260400151836060015184608001518560a001519650965096509650965096505091939550919395565b60015481565b6001548110610708576040517f08c379a00000000000000000000000000000000000000000000000000000000081526004016106ff90610e19565b60405180910390fd5b6000341161074b576040517f08c379a000000000000000000000000000000000000000000000000000000000815260040161074290610fa9565b60405180910390fd5b600080600083815260200190815260200160002090508060050160009054906101000a900460ff16156107b3576040517f08c379a00000000000000000000000000000000000000000000000000000000081526004016107aa90611015565b60405180910390fd5b348160040160008282546107c79190611064565b925050819055507f0b5b4c52969ff7329ecf7ee536409fda87812b15a8622bc6e8cdeab3aee14a2682333460405161080193929190611098565b60405180910390a15050565b60008111610850576040517f08c379a000000000000000000000000000000000000000000000000000000000815260040161084790611141565b60405180910390fd5b6040518060c001604052803373ffffffffffffffffffffffffffffffffffffffff1681526020018481526020018381526020018281526020016000815260200160001515815250600080600154815260200190815260200160002060008201518160000160006101000a81548173ffffffffffffffffffffffffffffffffffffffff021916908373ffffffffffffffffffffffffffffffffffffffff1602179055506020820151816001019081610907919061130d565b50604082015181600201908161091d919061130d565b50606082015181600301556080820151816004015560a08201518160050160006101000a81548160ff0219169083151502179055509050507f825fb10f7650ed27414d6f86acdf7d5946927d9b25001f045f1a2435deec02fe60015433858460405161098c94939291906113df565b60405180910390a1600160008154809291906109a79061142b565b9190505550505050565b6000604051905090565b600080fd5b600080fd5b6000819050919050565b6109d8816109c5565b81146109e357600080fd5b50565b6000813590506109f5816109cf565b92915050565b600060208284031215610a1157610a106109bb565b5b6000610a1f848285016109e6565b91505092915050565b600073ffffffffffffffffffffffffffffffffffffffff82169050919050565b6000610a5382610a28565b9050919050565b610a6381610a48565b82525050565b600081519050919050565b600082825260208201905092915050565b60005b83811015610aa3578082015181840152602081019050610a88565b60008484015250505050565b6000601f19601f8301169050919050565b6000610acb82610a69565b610ad58185610a74565b9350610ae5818560208601610a85565b610aee81610aaf565b840191505092915050565b610b02816109c5565b82525050565b60008115159050919050565b610b1d81610b08565b82525050565b600060c082019050610b386000830189610a5a565b8181036020830152610b4a8188610ac0565b90508181036040830152610b5e8187610ac0565b9050610b6d6060830186610af9565b610b7a6080830185610af9565b610b8760a0830184610b14565b979650505050505050565b6000602082019050610ba76000830184610af9565b92915050565b600080fd5b600080fd5b7f4e487b7100000000000000000000000000000000000000000000000000000000600052604160045260246000fd5b610bef82610aaf565b810181811067ffffffffffffffff82111715610c0e57610c0d610bb7565b5b80604052505050565b6000610c216109b1565b9050610c2d8282610be6565b919050565b600067ffffffffffffffff821115610c4d57610c4c610bb7565b5b610c5682610aaf565b9050602081019050919050565b82818337600083830152505050565b6000610c85610c8084610c32565b610c17565b905082815260208101848484011115610ca157610ca0610bb2565b5b610cac848285610c63565b509392505050565b600082601f830112610cc957610cc8610bad565b5b8135610cd9848260208601610c72565b91505092915050565b600080600060608486031215610cfb57610cfa6109bb565b5b600084013567ffffffffffffffff811115610d1957610d186109c0565b5b610d2586828701610cb4565b935050602084013567ffffffffffffffff811115610d4657610d456109c0565b5b610d5286828701610cb4565b9250506040610d63868287016109e6565b9150509250925092565b7f4e487b7100000000000000000000000000000000000000000000000000000000600052602260045260246000fd5b60006002820490506001821680610db457607f821691505b602082108103610dc757610dc6610d6d565b5b50919050565b7f43616d706169676e20646f6573206e6f74206578697374000000000000000000600082015250565b6000610e03601783610a74565b9150610e0e82610dcd565b602082019050919050565b60006020820190508181036000830152610e3281610df6565b9050919050565b7f4f6e6c79207468652063616d706169676e206f776e65722063616e207769746860008201527f647261772066756e647300000000000000000000000000000000000000000000602082015250565b6000610e95602a83610a74565b9150610ea082610e39565b604082019050919050565b60006020820190508181036000830152610ec481610e88565b9050919050565b7f46756e6472616973696e6720676f616c206e6f74207965742072656163686564600082015250565b6000610f01602083610a74565b9150610f0c82610ecb565b602082019050919050565b60006020820190508181036000830152610f3081610ef4565b9050919050565b7f446f6e6174696f6e20616d6f756e74206d75737420626520677265617465722060008201527f7468616e207a65726f0000000000000000000000000000000000000000000000602082015250565b6000610f93602983610a74565b9150610f9e82610f37565b604082019050919050565b60006020820190508181036000830152610fc281610f86565b9050919050565b7f43616d706169676e20697320616c726561647920636f6d706c65746564000000600082015250565b6000610fff601d83610a74565b915061100a82610fc9565b602082019050919050565b6000602082019050818103600083015261102e81610ff2565b9050919050565b7f4e487b7100000000000000000000000000000000000000000000000000000000600052601160045260246000fd5b600061106f826109c5565b915061107a836109c5565b925082820190508082111561109257611091611035565b5b92915050565b60006060820190506110ad6000830186610af9565b6110ba6020830185610a5a565b6110c76040830184610af9565b949350505050565b7f476f616c20616d6f756e74206d7573742062652067726561746572207468616e60008201527f207a65726f000000000000000000000000000000000000000000000000000000602082015250565b600061112b602583610a74565b9150611136826110cf565b604082019050919050565b6000602082019050818103600083015261115a8161111e565b9050919050565b60008190508160005260206000209050919050565b60006020601f8301049050919050565b600082821b905092915050565b6000600883026111c37fffffffffffffffffffffffffffffffffffffffffffffffffffffffffffffffff82611186565b6111cd8683611186565b95508019841693508086168417925050509392505050565b6000819050919050565b600061120a611205611200846109c5565b6111e5565b6109c5565b9050919050565b6000819050919050565b611224836111ef565b61123861123082611211565b848454611193565b825550505050565b600090565b61124d611240565b61125881848461121b565b505050565b5b8181101561127c57611271600082611245565b60018101905061125e565b5050565b601f8211156112c15761129281611161565b61129b84611176565b810160208510156112aa578190505b6112be6112b685611176565b83018261125d565b50505b505050565b600082821c905092915050565b60006112e4600019846008026112c6565b1980831691505092915050565b60006112fd83836112d3565b9150826002028217905092915050565b61131682610a69565b67ffffffffffffffff81111561132f5761132e610bb7565b5b6113398254610d9c565b611344828285611280565b600060209050601f8311600181146113775760008415611365578287015190505b61136f85826112f1565b8655506113d7565b601f19841661138586611161565b60005b828110156113ad57848901518255600182019150602085019450602081019050611388565b868310156113ca57848901516113c6601f8916826112d3565b8355505b6001600288020188555050505b505050505050565b60006080820190506113f46000830187610af9565b6114016020830186610a5a565b81810360408301526114138185610ac0565b90506114226060830184610af9565b95945050505050565b6000611436826109c5565b91507fffffffffffffffffffffffffffffffffffffffffffffffffffffffffffffffff820361146857611467611035565b5b60018201905091905056fea2646970667358221220ef548bbf97a978c0f219ab0002050daba58deb5bd0f66151869a43b278bfcda464736f6c634300081c0033",
  "linkReferences": {},
  "deployedLinkReferences": {}
}